:100000000C942A000C9447000C9447000C94470071
:100010000C9447000C9447000C9447000C94470044
:100020000C944C000C9447000C9447000C9447002F
:100030000C9447000C9447000C9447000C94470024
:100040000C9447000C9447000C9447000C94470014
:100050000C94470011241FBECFE5D4E0DEBFCDBF16
:1000600010E0A0E6B0E0E4E0F8E002C005900D92F8
:10007000AC36B107D9F720E0ACE6B0E001C01D9284
:10008000AF37B207E1F70E94EA000C9400040C9429
:100090000000C09AC39A08951F920F920FB60F9254
:1000A00011248F939F9380917C0090917D009DBD42
:1000B0008CBD9F918F910F900FBE0F901F90189540
:1000C000AD9A80E18A95F1F7AD9887EC90E00197C1
:1000D000F1F700C00000089580FF02C0C49A01C07B
:1000E000C49881FF02C0C59A01C0C59882FF02C0B2
:1000F000C69A01C0C69883FF02C0C79A0895C798E0
:100100000895CF93C82F82958F700E946C000E9433
:1001100060008C2F0E946C000E946000CF910895B7
:1001200081E00E9481008FE39FE10197F1F700C019
:100130000000089580E00E946C002FEF89EF90E0AE
:10014000215080409040E1F700C00000AB98AC988F
:1001500083E00E946C000E9460008FE19EE40197A2
:10016000F1F700C000000E9460008FE891E0019765
:10017000F1F700C000000E94600082E00E946C0065
:100180000E94600088E20E9481008CE00E94810051
:1001900086E00E9481000E9490000895611102C0D3
:1001A000805801C080540E9481000895AB9A0E943B
:1001B0008100AB980895CF93DF93EC018881882369
:1001C00031F021960E94D60089918111FBCFDF91F9
:1001D000CF91089587B3806F87BB88B3806F88BB4A
:1001E00084B3886384BB85B3886385BB0E94490060
:1001F0000E949A0000E610E0CCE6D0E080917E00FC
:100200001F928F931F930F93DF93CF930E9416013A
:1002100060E080E00E94CE00CE010E94DB000F90E3
:100220000F900F900F900F900F90E8CFAEE0B0E0DE
:10023000ECE1F1E00C94D7030D891E8986E08C83F4
:100240001A8309838FEF9FE79E838D83AE01475EFC
:100250005F4F6F89788DCE0101960E943801EF8142
:10026000F885E00FF11F10822E96E4E00C94F30362
:10027000ABE0B0E0EEE3F1E00C94C9036C017B016C
:100280008A01FC0117821682838181FFCCC1CE01D5
:1002900001963C01F6019381F70193FD859193FF4F
:1002A00081917F01882309F4BAC1853239F493FD25
:1002B000859193FF81917F01853229F4B60190E009
:1002C0000E942F03E7CF912C212C312CFFE1F31555
:1002D000D8F08B3279F038F4803279F08332A1F49F
:1002E000232D20611DC08D3261F0803369F4232DF0
:1002F000216016C0832D8260382EE32DE4603E2EEF
:100300002AC0F32DF8601DC037FC2DC020ED280F4A
:100310002A3040F08E32B9F436FC81C1232D20649E
:10032000322E19C036FE06C08AE0989E200D112498
:10033000922E11C0EAE02E9E200D1124222EF32DC4
:10034000F0623F2E08C08C3621F4832D8068382E51
:1003500002C0883641F4F70193FD859193FF8191A6
:100360007F018111B3CF982F9F7D9554933028F44E
:100370000C5F1F4F9FE399830DC0833631F08337A5
:1003800071F0833509F059C021C0F801808189835B
:100390000E5F1F4F88248394912C530113C02801B2
:1003A000F2E04F0E511CF801A080B18036FE03C070
:1003B000692D70E002C06FEF7FEFC5010E9424033A
:1003C0004C018201F32DFF773F2E16C0280122E059
:1003D000420E511CF801A080B18036FE03C0692D89
:1003E00070E002C06FEF7FEFC5010E9419034C015E
:1003F000F32DF0683F2E820133FC1BC0822D90E06C
:1004000088169906B0F4B60180E290E00E942F03AE
:100410002A94F4CFF50137FC859137FE81915F0175
:10042000B60190E00E942F0321102A9421E0821A45
:1004300091088114910471F7E8C0843611F089366F
:1004400041F5F80137FE07C0608171818281938197
:100450000C5F1F4F08C060817181072E000C880B54
:10046000990B0E5F1F4FF32DFF763F2E97FF09C0AC
:1004700090958095709561957F4F8F4F9F4FF06855
:100480003F2E2AE030E0A3010E946B03882E8618DD
:1004900045C0853731F4232D2F7EB22E2AE030E07F
:1004A00025C0932D997FB92E8F36C1F018F4883569
:1004B00079F0B5C0803719F0883721F0B0C0E92F46
:1004C000E061BE2EB4FE0DC0FB2DF460BF2E09C04E
:1004D00034FE0AC0292F2660B22E06C028E030E084
:1004E00005C020E130E002C020E132E0F801B7FEB3
:1004F00007C060817181828193810C5F1F4F06C0AC
:100500006081718180E090E00E5F1F4FA3010E9427
:100510006B03882E8618FB2DFF773F2E36FE0DC00D
:10052000232D2E7FA22E891458F434FE0BC032FCEA
:1005300009C0832D8E7EA82E05C0B82CA32C03C025
:10054000B82C01C0B92CA4FE0FC0FE01E80DF11DAE
:100550008081803321F49A2D997EA92E09C0A2FEB4
:1005600006C0B394B39404C08A2D867809F0B3947E
:10057000A3FC11C0A0FE06C0B21488F4280C922C73
:100580009B180EC0B21460F4B60180E290E00E94A5
:100590002F03B394F7CFB21418F42B1802C0982C81
:1005A000212CA4FE10C0B60180E390E00E942F032E
:1005B000A2FE17C0A1FC03C088E790E002C088E556
:1005C00090E0B6010CC08A2D867859F0A1FE02C0D9
:1005D0008BE201C080E2A7FC8DE2B60190E00E94B0
:1005E0002F03891438F4B60180E390E00E942F03B2
:1005F0009A94F7CF8A94F301E80DF11D8081B6013A
:1006000090E00E942F038110F5CF222009F442CE02
:10061000B60180E290E00E942F032A94F6CFF60103
:100620008681978102C08FEF9FEF2B96E2E10C94B9
:10063000E503FC010590615070400110D8F78095EA
:1006400090958E0F9F1F0895FC016150704001909E
:100650000110D8F7809590958E0F9F1F08950F93E6
:100660001F93CF93DF93FB01238121FD03C08FEF05
:100670009FEF2CC022FF16C046815781248135810F
:100680004217530744F4A081B1819D012F5F3F4F72
:10069000318320838C93268137812F5F3F4F3783AF
:1006A000268314C08B01EC01FB010084F185E02D51
:1006B0000995892BE1F6D80116968D919C91179793
:1006C000019617969C938E931697CE01DF91CF914A
:1006D0001F910F910895FA01AA27283051F1203176
:1006E00081F1E8946F936E7F6E5F7F4F8F4F9F4FC6
:1006F000AF4FB1E03ED0B4E03CD0670F781F891F08
:100700009A1FA11D680F791F8A1F911DA11D6A0FD5
:10071000711D811D911DA11D20D009F468943F9188
:100720002AE0269F11243019305D3193DEF6CF0187
:100730000895462F4770405D4193B3E00FD0C9F74D
:10074000F6CF462F4F70405D4A3318F0495D31FDBA
:100750004052419302D0A9F7EACFB4E0A69597950D
:10076000879577956795BA95C9F7009761057105E3
:1007700008959B01AC010A2E06945795479537952D
:100780002795BA95C9F7620F731F841F951FA01D87
:1007900008952F923F924F925F926F927F928F9225
:1007A0009F92AF92BF92CF92DF92EF92FF920F9300
:1007B0001F93CF93DF93CDB7DEB7CA1BDB0B0FB60A
:1007C000F894DEBF0FBECDBF09942A8839884888C7
:1007D0005F846E847D848C849B84AA84B984C8845D
:1007E000DF80EE80FD800C811B81AA81B981CE0F54
:1007F000D11D0FB6F894DEBF0FBECDBFED01089539
:04080000F894FFCF9A
:0C0804004E756D6265723D253364000086
:00000001FF
