:100000000C9434000C9449000C9449000C94490061
:100010000C9449000C9449000C9449000C9449003C
:100020000C9449000C9449000C9449000C9449002C
:100030000C9449000C9449000C9449000C9449001C
:100040000C9449000C9449000C9449000C9449000C
:100050000C9449000C9449000C9449000C944900FC
:100060000C9449000C94490011241FBECFEFD8E036
:10007000DEBFCDBF11E0A0E0B1E0EEEDF1E002C0E7
:1000800005900D92A031B107D9F70E94D9000C94C8
:10009000ED000C94000025B12F70982F907F922BCB
:1000A00095B92A9A2A9830E1839FC0011124822BA6
:1000B00085B92A9A2A9808958FEF84B984B9289827
:1000C00029982A982A9A2D9A2A982FEF80E792E069
:1000D000215080409040E1F700C0000088E20E947B
:1000E0004B002FEF80E792E0215080409040E1F7F5
:1000F00000C0000028988EE00E944B002FEF80E7A0
:1001000092E0215080409040E1F700C00000289824
:1001100086E00E944B002FEF80E792E02150804064
:100120009040E1F700C000000895289881E00E9407
:100130004B002FEF80E792E0215080409040E1F7A4
:1001400000C000000895289820E4829F600D1124CB
:10015000862F815C0E944B008FEF90E722E0815058
:1001600090402040E1F700C000000895289A0E94C6
:100170004B002FEF80E792E0215080409040E1F764
:1001800000C0000008950F931F93CF93FC0180815E
:10019000882359F08F01C0E00E94B600CF5FF801BC
:1001A000EC0FF11D80818111F7CFCF911F910F913D
:1001B00008950E945C000E94950067E081E00E9423
:1001C000A30088E50E94B60061E082E00E94A300DF
:0E01D00080E091E00E94C300FFCFF894FFCFC3
:1001DE00496E7075745F615F737472696E6721002A
:00000001FF
